{
  "contractName": "AttendanceApp",
  "abi": [
    {
      "inputs": [],
      "payable": false,
      "stateMutability": "nonpayable",
      "type": "constructor"
    },
    {
      "anonymous": false,
      "inputs": [
        {
          "indexed": false,
          "internalType": "uint256",
          "name": "id",
          "type": "uint256"
        },
        {
          "indexed": false,
          "internalType": "string",
          "name": "name",
          "type": "string"
        },
        {
          "indexed": false,
          "internalType": "address",
          "name": "studAddress",
          "type": "address"
        },
        {
          "indexed": false,
          "internalType": "string",
          "name": "date",
          "type": "string"
        }
      ],
      "name": "AttendanceMarked",
      "type": "event"
    },
    {
      "constant": true,
      "inputs": [
        {
          "internalType": "uint256",
          "name": "",
          "type": "uint256"
        }
      ],
      "name": "atlist",
      "outputs": [
        {
          "internalType": "uint256",
          "name": "id",
          "type": "uint256"
        },
        {
          "internalType": "string",
          "name": "name",
          "type": "string"
        },
        {
          "internalType": "address",
          "name": "studAddress",
          "type": "address"
        },
        {
          "internalType": "string",
          "name": "date",
          "type": "string"
        }
      ],
      "payable": false,
      "stateMutability": "view",
      "type": "function"
    },
    {
      "constant": true,
      "inputs": [],
      "name": "studCount",
      "outputs": [
        {
          "internalType": "uint256",
          "name": "",
          "type": "uint256"
        }
      ],
      "payable": false,
      "stateMutability": "view",
      "type": "function"
    },
    {
      "constant": false,
      "inputs": [
        {
          "internalType": "string",
          "name": "_name",
          "type": "string"
        },
        {
          "internalType": "string",
          "name": "_date",
          "type": "string"
        }
      ],
      "name": "markPresent",
      "outputs": [],
      "payable": false,
      "stateMutability": "nonpayable",
      "type": "function"
    }
  ],
  "bytecode": "0x60806040526000805534801561001457600080fd5b5061068f806100246000396000f3fe608060405234801561001057600080fd5b50600436106100415760003560e01c80630d2e8cec14610046578063145c46c41461006057806338a130e71461018f575b600080fd5b61004e6102aa565b60408051918252519081900360200190f35b61018d6004803603604081101561007657600080fd5b81019060208101813564010000000081111561009157600080fd5b8201836020820111156100a357600080fd5b803590602001918460018302840111640100000000831117156100c557600080fd5b91908080601f016020809104026020016040519081016040528093929190818152602001838380828437600092019190915250929594936020810193503591505064010000000081111561011857600080fd5b82018360208201111561012a57600080fd5b8035906020019184600183028401116401000000008311171561014c57600080fd5b91908080601f0160208091040260200160405190810160405280939291908181526020018383808284376000920191909152509295506102b0945050505050565b005b6101ac600480360360208110156101a557600080fd5b5035610477565b6040518085815260200180602001846001600160a01b03166001600160a01b0316815260200180602001838103835286818151815260200191508051906020019080838360005b8381101561020b5781810151838201526020016101f3565b50505050905090810190601f1680156102385780820380516001836020036101000a031916815260200191505b50838103825284518152845160209182019186019080838360005b8381101561026b578181015183820152602001610253565b50505050905090810190601f1680156102985780820380516001836020036101000a031916815260200191505b50965050505050505060405180910390f35b60005481565b60008054600190810180835560408051608081018252828152602080820188815233838501819052606084018990529487528582529290952081518155915180519395919492936103089385019291909101906105bf565b5060408201516002820180546001600160a01b0319166001600160a01b039092169190911790556060820151805161034a9160038401916020909101906105bf565b509050507f97e7e4dafa124469c932fb6ebcf8a4f43500f45a2a4c67515a60f16e72ef5b9a6000548483856040518085815260200180602001846001600160a01b03166001600160a01b0316815260200180602001838103835286818151815260200191508051906020019080838360005b838110156103d45781810151838201526020016103bc565b50505050905090810190601f1680156104015780820380516001836020036101000a031916815260200191505b50838103825284518152845160209182019186019080838360005b8381101561043457818101518382015260200161041c565b50505050905090810190601f1680156104615780820380516001836020036101000a031916815260200191505b50965050505050505060405180910390a1505050565b600160208181526000928352604092839020805481840180548651600296821615610100026000190190911695909504601f810185900485028601850190965285855290949193929091908301828280156105135780601f106104e857610100808354040283529160200191610513565b820191906000526020600020905b8154815290600101906020018083116104f657829003601f168201915b505050506002838101546003850180546040805160206101006001851615026000190190931695909504601f810183900483028601830190915280855295966001600160a01b03909316959294509091908301828280156105b55780601f1061058a576101008083540402835291602001916105b5565b820191906000526020600020905b81548152906001019060200180831161059857829003601f168201915b5050505050905084565b828054600181600116156101000203166002900490600052602060002090601f016020900481019282601f1061060057805160ff191683800117855561062d565b8280016001018555821561062d579182015b8281111561062d578251825591602001919060010190610612565b5061063992915061063d565b5090565b61065791905b808211156106395760008155600101610643565b9056fea265627a7a72315820aa3912a53696425d4876cdb61a4d0bcdb5a01c6cd1534729f1ee74f6ff34412864736f6c63430005100032",
  "source": "pragma solidity ^0.5.0;\n\ncontract AttendanceApp {\n  uint public studCount = 0;\n\n  struct AtData {\n    uint id;\n    string name;\n    address studAddress;\n    string date;\n  }\n\n  mapping(uint => AtData) public atlist;\n\n  event AttendanceMarked(\n    uint id,\n    string name,\n    address studAddress,\n    string date\n  );\n\n  constructor() public {\n    // Can make the constructor do something here.\n  }\n\n  function markPresent(string memory _name, string memory _date) public {\n    address studAddress = msg.sender;\n    studCount ++;\n    atlist[studCount] = AtData(studCount, _name, studAddress, _date);\n    emit AttendanceMarked(studCount, _name, studAddress, _date);\n  }\n\n}\n",
  "sourcePath": "/home/srujan/Projects/attendance_app_IO/contracts/AttendanceApp.sol",
  "compiler": {
    "name": "solc",
    "version": "0.5.16+commit.9c3226ce.Emscripten.clang"
  },
  "schemaVersion": "3.0.23",
  "updatedAt": "2020-05-01T18:24:09.532Z",
  "networkType": "ethereum",
  "devdoc": {
    "methods": {}
  },
  "userdoc": {
    "methods": {}
  }
}