{
  "contractName": "TodoList",
  "abi": [
    {
      "inputs": [],
      "payable": false,
      "stateMutability": "nonpayable",
      "type": "constructor"
    },
    {
      "anonymous": false,
      "inputs": [
        {
          "indexed": false,
          "internalType": "uint256",
          "name": "id",
          "type": "uint256"
        },
        {
          "indexed": false,
          "internalType": "string",
          "name": "name",
          "type": "string"
        },
        {
          "indexed": false,
          "internalType": "address",
          "name": "studAddress",
          "type": "address"
        },
        {
          "indexed": false,
          "internalType": "bool",
          "name": "completed",
          "type": "bool"
        }
      ],
      "name": "TaskCreated",
      "type": "event"
    },
    {
      "constant": true,
      "inputs": [],
      "name": "studCount",
      "outputs": [
        {
          "internalType": "uint256",
          "name": "",
          "type": "uint256"
        }
      ],
      "payable": false,
      "stateMutability": "view",
      "type": "function"
    },
    {
      "constant": true,
      "inputs": [
        {
          "internalType": "uint256",
          "name": "",
          "type": "uint256"
        }
      ],
      "name": "tasks",
      "outputs": [
        {
          "internalType": "uint256",
          "name": "id",
          "type": "uint256"
        },
        {
          "internalType": "string",
          "name": "name",
          "type": "string"
        },
        {
          "internalType": "address",
          "name": "studAddress",
          "type": "address"
        },
        {
          "internalType": "bool",
          "name": "completed",
          "type": "bool"
        }
      ],
      "payable": false,
      "stateMutability": "view",
      "type": "function"
    },
    {
      "constant": false,
      "inputs": [
        {
          "internalType": "string",
          "name": "_name",
          "type": "string"
        }
      ],
      "name": "createTask",
      "outputs": [],
      "payable": false,
      "stateMutability": "nonpayable",
      "type": "function"
    }
  ],
  "bytecode": "0x60806040526000805534801561001457600080fd5b5060408051808201909152601281527f5372756a616e20616b612074686520534d450000000000000000000000000000602082015261005b906001600160e01b0361006016565b61026a565b60008054600190810180835560408051608081018252828152602080820187815233838501819052606084018890529487528582529290952081518155915180519395919492936100b89385019291909101906101cf565b5060408281015160029290920180546060948501516001600160a01b03199091166001600160a01b039485161760ff60a01b19167401000000000000000000000000000000000000000091151591909102179055600080548251818152938616928401929092529282018390526080602080840182815287519285019290925286517fdd6e34b4410a0a94ac38ed3f97a0edda282a565e81ecf13d706da76319d3c6049593948894889490939192909160a084019190870190808383885b8381101561018e578181015183820152602001610176565b50505050905090810190601f1680156101bb5780820380516001836020036101000a031916815260200191505b509550505050505060405180910390a15050565b828054600181600116156101000203166002900490600052602060002090601f016020900481019282601f1061021057805160ff191683800117855561023d565b8280016001018555821561023d579182015b8281111561023d578251825591602001919060010190610222565b5061024992915061024d565b5090565b61026791905b808211156102495760008155600101610253565b90565b6104b4806102796000396000f3fe608060405234801561001057600080fd5b50600436106100415760003560e01c80630d2e8cec14610046578063111002aa146100605780638d97767214610108575b600080fd5b61004e6101be565b60408051918252519081900360200190f35b6101066004803603602081101561007657600080fd5b81019060208101813564010000000081111561009157600080fd5b8201836020820111156100a357600080fd5b803590602001918460018302840111640100000000831117156100c557600080fd5b91908080601f0160208091040260200160405190810160405280939291908181526020018383808284376000920191909152509295506101c4945050505050565b005b6101256004803603602081101561011e57600080fd5b5035610322565b604080518581526001600160a01b03841691810191909152811515606082015260806020808301828152865192840192909252855160a084019187019080838360005b83811015610180578181015183820152602001610168565b50505050905090810190601f1680156101ad5780820380516001836020036101000a031916815260200191505b509550505050505060405180910390f35b60005481565b600080546001908101808355604080516080810182528281526020808201878152338385018190526060840188905294875285825292909520815181559151805193959194929361021c9385019291909101906103e4565b5060408281015160029290920180546060948501516001600160a01b03199091166001600160a01b039485161760ff60a01b1916600160a01b91151591909102179055600080548251818152938616928401929092529282018390526080602080840182815287519285019290925286517fdd6e34b4410a0a94ac38ed3f97a0edda282a565e81ecf13d706da76319d3c6049593948894889490939192909160a084019190870190808383885b838110156102e15781810151838201526020016102c9565b50505050905090810190601f16801561030e5780820380516001836020036101000a031916815260200191505b509550505050505060405180910390a15050565b600160208181526000928352604092839020805481840180548651600296821615610100026000190190911695909504601f810185900485028601850190965285855290949193929091908301828280156103be5780601f10610393576101008083540402835291602001916103be565b820191906000526020600020905b8154815290600101906020018083116103a157829003601f168201915b505050600290930154919250506001600160a01b0381169060ff600160a01b9091041684565b828054600181600116156101000203166002900490600052602060002090601f016020900481019282601f1061042557805160ff1916838001178555610452565b82800160010185558215610452579182015b82811115610452578251825591602001919060010190610437565b5061045e929150610462565b5090565b61047c91905b8082111561045e5760008155600101610468565b9056fea265627a7a723158209cd1cfd9cdfb92c3765b5b356a65dc4e3dd9f0e277164d37926a5daee5f9e68c64736f6c634300050c0032",
  "source": "pragma solidity ^0.5.0;\r\n\r\ncontract TodoList {\r\n  uint public studCount = 0;\r\n\r\n  struct Task {\r\n    uint id;\r\n    string name;\r\n    address studAddress;\r\n    bool completed;\r\n  }\r\n\r\n  mapping(uint => Task) public tasks;\r\n\r\n  event TaskCreated(\r\n    uint id,\r\n    string name,\r\n    address studAddress,\r\n    bool completed\r\n  );\r\n\r\n\r\n  constructor() public {\r\n    createTask(\"Srujan aka the SME\");\r\n  }\r\n\r\n  function createTask(string memory _name) public {\r\n    studCount ++;\r\n    address studAddress = msg.sender;\r\n    tasks[studCount] = Task(studCount, _name, studAddress, false);\r\n    emit TaskCreated(studCount, _name, studAddress, false);\r\n  }\r\n\r\n\r\n}\r\n",
  "sourcePath": "C:/Users/Srujan Deshpande/Desktop/Ventures/IO/Blockchain/attendance_app/contracts/TodoList.sol",
  "compiler": {
    "name": "solc",
    "version": "0.5.12+commit.7709ece9.Emscripten.clang"
  },
  "schemaVersion": "3.0.19",
  "updatedAt": "2020-03-04T08:19:08.504Z",
  "networkType": "ethereum",
  "devdoc": {
    "methods": {}
  },
  "userdoc": {
    "methods": {}
  }
}