{
  "contractName": "TodoList",
  "abi": [
    {
      "inputs": [],
      "payable": false,
      "stateMutability": "nonpayable",
      "type": "constructor"
    },
    {
      "anonymous": false,
      "inputs": [
        {
          "indexed": false,
          "internalType": "uint256",
          "name": "id",
          "type": "uint256"
        },
        {
          "indexed": false,
          "internalType": "string",
          "name": "name",
          "type": "string"
        },
        {
          "indexed": false,
          "internalType": "address",
          "name": "studAddress",
          "type": "address"
        }
      ],
      "name": "TaskCreated",
      "type": "event"
    },
    {
      "constant": true,
      "inputs": [],
      "name": "studCount",
      "outputs": [
        {
          "internalType": "uint256",
          "name": "",
          "type": "uint256"
        }
      ],
      "payable": false,
      "stateMutability": "view",
      "type": "function"
    },
    {
      "constant": true,
      "inputs": [
        {
          "internalType": "uint256",
          "name": "",
          "type": "uint256"
        }
      ],
      "name": "tasks",
      "outputs": [
        {
          "internalType": "uint256",
          "name": "id",
          "type": "uint256"
        },
        {
          "internalType": "string",
          "name": "name",
          "type": "string"
        },
        {
          "internalType": "address",
          "name": "studAddress",
          "type": "address"
        }
      ],
      "payable": false,
      "stateMutability": "view",
      "type": "function"
    },
    {
      "constant": false,
      "inputs": [
        {
          "internalType": "string",
          "name": "_name",
          "type": "string"
        }
      ],
      "name": "markPresent",
      "outputs": [],
      "payable": false,
      "stateMutability": "nonpayable",
      "type": "function"
    }
  ],
  "bytecode": "0x60806040526000805534801561001457600080fd5b506104d2806100246000396000f3fe608060405234801561001057600080fd5b50600436106100415760003560e01c80630bc689d4146100465780630d2e8cec146100ee5780638d97767214610108575b600080fd5b6100ec6004803603602081101561005c57600080fd5b81019060208101813564010000000081111561007757600080fd5b82018360208201111561008957600080fd5b803590602001918460018302840111640100000000831117156100ab57600080fd5b91908080601f0160208091040260200160405190810160405280939291908181526020018383808284376000920191909152509295506101bd945050505050565b005b6100f6610347565b60408051918252519081900360200190f35b6101256004803603602081101561011e57600080fd5b503561034d565b6040518084815260200180602001836001600160a01b03166001600160a01b03168152602001828103825284818151815260200191508051906020019080838360005b83811015610180578181015183820152602001610168565b50505050905090810190601f1680156101ad5780820380516001836020036101000a031916815260200191505b5094505050505060405180910390f35b3360015b60005481116101fe576000818152600160205260409020600201546001600160a01b03838116911614156101f6575050610344565b6001016101c1565b506000805460019081018083556040805160608101825282815260208082018881526001600160a01b03881683850152938652848152919094208451815591518051929361025493908501929190910190610402565b5060408201518160020160006101000a8154816001600160a01b0302191690836001600160a01b031602179055509050507fdc691e972cb25fd6e968744b5a6416d42a052ac1305e3b7ed6777b621304b7f260005483836040518084815260200180602001836001600160a01b03166001600160a01b03168152602001828103825284818151815260200191508051906020019080838360005b838110156103065781810151838201526020016102ee565b50505050905090810190601f1680156103335780820380516001836020036101000a031916815260200191505b5094505050505060405180910390a1505b50565b60005481565b600160208181526000928352604092839020805481840180548651600296821615610100026000190190911695909504601f810185900485028601850190965285855290949193929091908301828280156103e95780601f106103be576101008083540402835291602001916103e9565b820191906000526020600020905b8154815290600101906020018083116103cc57829003601f168201915b505050600290930154919250506001600160a01b031683565b828054600181600116156101000203166002900490600052602060002090601f016020900481019282601f1061044357805160ff1916838001178555610470565b82800160010185558215610470579182015b82811115610470578251825591602001919060010190610455565b5061047c929150610480565b5090565b61049a91905b8082111561047c5760008155600101610486565b9056fea265627a7a7231582017077919000c6658d613fe2002aee8a3b319a5628688ed63b75ac854778c4fb664736f6c634300050c0032",
  "source": "pragma solidity ^0.5.0;\r\n\r\ncontract TodoList {\r\n  uint public studCount = 0;\r\n\r\n  struct Task {\r\n    uint id;\r\n    string name;\r\n    address studAddress;\r\n  }\r\n\r\n  mapping(uint => Task) public tasks;\r\n\r\n  event TaskCreated(\r\n    uint id,\r\n    string name,\r\n    address studAddress\r\n  );\r\n\r\n\r\n  constructor() public {\r\n    //createTask(\"Srujan aka the SME\");\r\n  }\r\n\r\n  function markPresent(string memory _name) public {\r\n    address studAddress = msg.sender;\r\n    for(uint i = 1;i<=studCount;i++) {\r\n      if(tasks[i].studAddress == studAddress) {\r\n        return;\r\n      }\r\n    }\r\n    studCount ++;\r\n    tasks[studCount] = Task(studCount, _name, studAddress);\r\n    emit TaskCreated(studCount, _name, studAddress);\r\n  }\r\n\r\n}\r\n",
  "sourcePath": "C:/Users/Srujan Deshpande/Desktop/Ventures/IO/Blockchain/attendance_app/contracts/TodoList.sol",
  "compiler": {
    "name": "solc",
    "version": "0.5.12+commit.7709ece9.Emscripten.clang"
  },
  "schemaVersion": "3.0.19",
  "updatedAt": "2020-03-04T09:16:04.250Z",
  "networkType": "ethereum",
  "devdoc": {
    "methods": {}
  },
  "userdoc": {
    "methods": {}
  }
}